:020000040800F2
:100000000050002045320008D5100008D710000825
:10001000D9100008DB100008DD1000080000000007
:10002000000000000000000000000000DF100008D9
:10003000E110000800000000E3100008E5100008CF
:100040008D3200088D3200088D3200088D32000894
:100050008D3200088D3200088D3200088D32000884
:100060008D3200088D3200088D3200088D32000874
:100070008D3200088D3200088D3200088D32000864
:100080008D3200088D3200088D3200088D32000854
:100090008D3200088D3200088D3200088D32000844
:1000A0008D3200088D3200088D3200088D32000834
:1000B0008D3200088D3200088D3200088D32000824
:1000C0008D3200088D3200088D3200088D32000814
:1000D0008D320008ED1000088D3200088D320008C6
:1000E0008D3200088D3200088D32000800000000BB
:1000F0000000000000000000000000000000000000
:0C01000000000000000000005FF808F1A3
:1001100010B5054C237833B9044B13B10448AFF341
:1001200000800123237010BDE001002000000000CA
:100130003466000808B5034B1BB103490348AFF30D
:10014000008008BD00000000E401002034660008C3
:1001500081F0004102E000BF83F0004330B54FEA78
:1001600041044FEA430594EA050F08BF90EA020FE5
:100170001FBF54EA000C55EA020C7FEA645C7FEA78
:10018000655C00F0E2804FEA5454D4EB5555B8BF9B
:100190006D420CDD2C4480EA020281EA030382EA0C
:1001A000000083EA010180EA020281EA0303362D9E
:1001B00088BF30BD11F0004F4FEA01314FF4801C71
:1001C0004CEA113102D0404261EB410113F0004F83
:1001D0004FEA03334CEA133302D0524263EB43033A
:1001E00094EA050F00F0A780A4F10104D5F1200ED8
:1001F0000DDB02FA0EFC22FA05F2801841F1000133
:1002000003FA0EF2801843FA05F359410EE0A5F106
:1002100020050EF1200E012A03FA0EFC28BF4CF037
:10022000020C43FA05F3C01851EBE37101F00045ED
:1002300007D54FF0000EDCF1000C7EEB00006EEBFA
:100240000101B1F5801F1BD3B1F5001F0CD3490884
:100250005FEA30004FEA3C0C04F101044FEA4452DB
:1002600012F5800F80F09A80BCF1004F08BF5FEA62
:10027000500C50F1000041EB045141EA050130BD42
:100280005FEA4C0C404141EB010111F4801FA4F1E5
:100290000104E9D191F0000F04BF01460020B1FA3A
:1002A00081F308BF2033A3F10B03B3F120020CDA72
:1002B0000C3208DD02F1140CC2F10C0201FA0CF050
:1002C00021FA02F10CE002F11402D8BFC2F1200CB5
:1002D00001FA02F120FA0CFCDCBF41EA0C0190406B
:1002E000E41AA2BF01EB0451294330BD6FEA0404B4
:1002F0001F3C1CDA0C340EDC04F11404C4F120029F
:1003000020FA04F001FA02F340EA030021FA04F3B0
:1003100045EA030130BDC4F10C04C4F1200220FA07
:1003200002F001FA04F340EA0300294630BD21FA45
:1003300004F0294630BD94F0000F83F4801306BF0B
:1003400081F480110134013D4EE77FEA645C18BFFF
:100350007FEA655C29D094EA050F08BF90EA020F96
:1003600005D054EA000C04BF1946104630BD91EA8E
:10037000030F1EBF0021002030BD5FEA545C05D191
:100380004000494128BF41F0004130BD14F58004D0
:100390003CBF01F5801130BD01F0004545F0FE4144
:1003A00041F470014FF0000030BD7FEA645C1ABF79
:1003B000194610467FEA655C1CBF0B46024650EAB0
:1003C000013406BF52EA033591EA030F41F40021DC
:1003D00030BD00BF90F0000F04BF0021704730B562
:1003E0004FF4806404F132044FF000054FF0000137
:1003F00050E700BF90F0000F04BF0021704730B5F8
:100400004FF4806404F1320410F0004548BF4042CC
:100410004FF000013EE700BF42004FEAE2014FEA21
:1004200031014FEA02701FBF12F07F4393F07F4FFC
:1004300081F06051704732F07F4208BF704793F0FF
:100440007F4F04BF41F40021704730B54FF4607412
:1004500001F0004521F000411CE700BF50EA010215
:1004600008BF704730B54FF000050AE050EA0102BE
:1004700008BF704730B511F0004502D5404261EB2E
:1004800041014FF4806404F132045FEA915C3FF46F
:10049000D8AE4FF003025FEADC0C18BF03325FEA0C
:1004A000DC0C18BF033202EBDC02C2F1200300FABD
:1004B00003FC20FA02F001FA03FE40EA0E0021FAE2
:1004C00002F11444BDE600BF70B54FF0FF0C4CF4D0
:1004D000E06C1CEA11541DBF1CEA135594EA0C0F82
:1004E00095EA0C0F00F0DEF82C4481EA030621EABD
:1004F0004C5123EA4C5350EA013518BF52EA0335F8
:1005000041F4801143F4801338D0A0FB02CE4FF0A9
:100510000005E1FB02E506F00042E0FB03E54FF0D9
:100520000006E1FB03569CF0000F18BF4EF0010ED1
:10053000A4F1FF04B6F5007F64F5407404D25FEACD
:100540004E0E6D4146EB060642EAC62141EA555180
:100550004FEAC52040EA5E504FEACE2EB4F1FD0CC2
:1005600088BFBCF5E06F1ED8BEF1004F08BF5FEA40
:10057000500E50F1000041EB045170BD06F00046F2
:1005800046EA010140EA020081EA0301B4EB5C049F
:10059000C2BFD4EB0C0541EA045170BD41F4801197
:1005A0004FF0000E013C00F3AB8014F1360FDEBFBC
:1005B000002001F0004170BDC4F10004203C35DA98
:1005C0000C341BDC04F11404C4F1200500FA05F31B
:1005D00020FA04F001FA05F240EA020001F00042BC
:1005E00021F0004110EBD37021FA04F642EB060132
:1005F0005EEA430E08BF20EAD37070BDC4F10C045C
:10060000C4F1200500FA04F320FA05F001FA04F21F
:1006100040EA020001F0004110EBD37041F100010B
:100620005EEA430E08BF20EAD37070BDC4F1200516
:1006300000FA05F24EEA020E20FA04F301FA05F27E
:1006400043EA020321FA04F001F0004121FA04F226
:1006500020EA020000EBD3705EEA430E08BF20EAF6
:10066000D37070BD94F0000F0FD101F00046400030
:1006700041EB010111F4801F08BF013CF7D041EAB2
:10068000060195F0000F18BF704703F000465200B6
:1006900043EB030313F4801F08BF013DF7D043EA87
:1006A0000603704794EA0C0F0CEA135518BF95EA3D
:1006B0000C0F0CD050EA410618BF52EA4306D1D1C4
:1006C00081EA030101F000414FF0000070BD50EAE3
:1006D000410606BF1046194652EA430619D094EA6D
:1006E0000C0F02D150EA013613D195EA0C0F05D157
:1006F00052EA03361CBF104619460AD181EA0301AB
:1007000001F0004141F0FE4141F470014FF0000062
:1007100070BD41F0FE4141F4780170BD70B54FF0FD
:10072000FF0C4CF4E06C1CEA11541DBF1CEA13557D
:1007300094EA0C0F95EA0C0F00F0A7F8A4EB05045F
:1007400081EA030E52EA03354FEA013100F0888056
:100750004FEA03334FF0805545EA131343EA12631F
:100760004FEA022245EA111545EA10654FEA0026D4
:100770000EF000419D4208BF964244F1FD0404F58D
:10078000407402D25B084FEA3202B61A65EB0305E9
:100790005B084FEA32024FF480104FF4002CB6EBA6
:1007A000020E75EB030E22BFB61A754640EA0C0026
:1007B0005B084FEA3202B6EB020E75EB030E22BF66
:1007C000B61A754640EA5C005B084FEA3202B6EBA7
:1007D000020E75EB030E22BFB61A754640EA9C0066
:1007E0005B084FEA3202B6EB020E75EB030E22BF36
:1007F000B61A754640EADC0055EA060E18D04FEAF4
:10080000051545EA16754FEA06164FEAC30343EA93
:1008100052734FEAC2025FEA1C1CC0D111F4801F60
:100820000BD141EA00014FF000004FF0004CB6E759
:1008300011F4801F04BF01430020B4F1FD0C88BFF8
:10084000BCF5E06F3FF6AFAEB5EB030C04BFB6EB03
:10085000020C5FEA500C50F1000041EB045170BDF6
:100860000EF0004E4EEA113114EB5C04C2BFD4EB23
:100870000C0541EA045170BD41F480114FF0000EA7
:10088000013C90E645EA060E8DE60CEA135594EA23
:100890000C0F08BF95EA0C0F3FF43BAF94EA0C0F26
:1008A0000AD150EA01347FF434AF95EA0C0F7FF49B
:1008B00025AF104619462CE795EA0C0F06D152EAEF
:1008C00003353FF4FDAE1046194622E750EA4106D3
:1008D00018BF52EA43067FF4C5AE50EA41047FF4E4
:1008E0000DAF52EA43057FF4EBAE12E74FF0FF3C49
:1008F00006E000BF4FF0010C02E000BF4FF0010C1A
:100900004DF804CD4FEA410C7FEA6C5C4FEA430C92
:1009100018BF7FEA6C5C1BD001B050EA410C0CBFE1
:1009200052EA430C91EA030F02BF90EA020F002043
:10093000704710F1000F91EA030F58BF994208BFAA
:1009400090422CBFD8176FEAE37040F00100704767
:100950004FEA410C7FEA6C5C02D150EA013C07D1BE
:100960004FEA430C7FEA6C5CD6D152EA033CD3D009
:100970005DF8040B704700BF8446104662468C4603
:100980001946634600E000BF01B5FFF7B7FF002836
:1009900048BF10F1000F01BD4DF808EDFFF7F4FF5F
:1009A0000CBF012000205DF808FB00BF4DF808EDEA
:1009B000FFF7EAFF34BF012000205DF808FB00BF0D
:1009C0004DF808EDFFF7E0FF94BF012000205DF82F
:1009D00008FB00BF4DF808EDFFF7CEFF94BF0120E4
:1009E00000205DF808FB00BF4DF808EDFFF7C4FFDD
:1009F00034BF012000205DF808FB00BF4FEA410C26
:100A00007FEA6C5C02D150EA013C0AD14FEA430C08
:100A10007FEA6C5C02D152EA033C02D14FF0000045
:100A200070474FF0010070474FEA4102B2F1E043D6
:100A300024BFB3F5001CDCF1FE5C0DD901F0004CC5
:100A40004FEAC0024CEA5070B2F1004F40EB830015
:100A500008BF20F00100704711F0804F21D113F141
:100A60003872BCBF01F00040704741F480114FEA7A
:100A70005252C2F11802C2F1200C10FA0CF320FA03
:100A800002F018BF40F001004FEAC1234FEAD32320
:100A900003FA0CFC40EA0C0023FA02F34FEA43038A
:100AA000CCE77FEA625307D150EA01331EBF4FF013
:100AB000FE4040F44000704701F0004040F0FE402E
:100AC00040F40000704700BF4FF0FF3C06E000BF5D
:100AD0004FF0010C02E000BF4FF0010C4DF804CDC7
:100AE0004FEA40024FEA41037FEA226C18BF7FEAD7
:100AF000236C11D001B052EA530C18BF90EA010FD9
:100B000058BFB2EB030088BFC81738BF6FEAE17067
:100B100018BF40F0010070477FEA226C02D15FEA03
:100B2000402C05D17FEA236CE4D15FEA412CE1D06F
:100B30005DF8040B704700BF844608466146FFE736
:100B40000FB5FFF7C9FF002848BF10F1000F0FBD18
:100B50004DF808EDFFF7F4FF0CBF012000205DF811
:100B600008FB00BF4DF808EDFFF7EAFF34BF012096
:100B700000205DF808FB00BF4DF808EDFFF7E0FF2F
:100B800094BF012000205DF808FB00BF4DF808ED80
:100B9000FFF7D2FF94BF012000205DF808FB00BFE3
:100BA0004DF808EDFFF7C8FF34BF012000205DF8C5
:100BB00008FB00BF034613F8012B002AFBD1181ACB
:100BC000013870474FEA410212F5001215D211D5D3
:100BD0006FF47873B3EB625212D94FEAC12343F03A
:100BE000004343EA505311F0004F23FA02F018BFBC
:100BF000404270474FF00000704750EA013005D185
:100C000011F0004008BF6FF0004070474FF0000047
:100C1000704700BF2DE9F04389B000240494059487
:100C2000069407942F4B9A6942F010029A619A69D0
:100C300002F010020092009A9A6942F020029A6132
:100C40009A6902F020020192019A9A6942F0040224
:100C50009A619A6902F004020292029A9A6942F039
:100C600008029A619B6903F008030393039BDFF872
:100C70007C9022464FF40051484600F0E9FEDFF830
:100C80007080224640F20111404600F0E1FE164F0E
:100C900022464BF20241384600F0DAFE4FF4005390
:100CA00004930126059606940225079504A9484653
:100CB00000F0E2FD40F201130493059606940795B7
:100CC00004A9404600F0D8FD4BF202430493059678
:100CD0000694079504A9384600F0CEFD09B0BDE89A
:100CE000F08300BF00100240000C014000100140E2
:100CF0000008014072B6FEE708B50E480E4B0360CF
:100D00004FF48273436000238360C3600361012258
:100D100042614FF4007282611822C2610362436231
:100D200083620A23C36201F00DFB00B908BDFFF71F
:100D3000E1FF00BFF80200200030014008B50A487A
:100D40000A4B03604FF41653436000238360C36073
:100D500003610C2242618361C36101F0B0FE00B9FE
:100D600008BDFFF7C7FF00BFA40200200038014004
:100D700000B585B000230193029303930F48104AF6
:100D800002608360037303754FF46022C2614360A5
:100D90000123036100F010FC60B901230193029369
:100DA0000023039301A9054800F03EFB20B905B0DC
:100DB0005DF804FBFFF79EFFFFF79CFF7402002025
:100DC0000024014000B595B000230C930D930F93C0
:100DD0001093059306930793089309930193029345
:100DE0000393049301220A924FF480330B930E92E3
:100DF0000222119212934FF4E01313930AA800F009
:100E000043FEC8B90F2305930221069100230793DF
:100E10004FF480620892099305A801F075F868B94B
:100E2000022301934FF40043039301A801F046F914
:100E300030B915B05DF804FBFFF75CFFFFF75AFF10
:100E4000FFF758FF0000000000B583B000F0B4FACF
:100E5000FFF7B8FFFFF7DEFEFFF74EFFFFF76EFF6D
:100E6000FFF786FF032002F09FF801222C492D484E
:100E700002F059F823E004F10040FFF7CDFA26A371
:100E8000D3E90023FFF76AF9FFF7CEFD264B186080
:100E9000264CFFF7C1FACDE90001254A0F21204673
:100EA00003F0BEFF2046FFF785FE642382B2214691
:100EB0001C4801F033FE4FF4FA5000F0A1FA02F0A2
:100EC0007BF9FFF7B1FD04460021FFF75FFE002824
:100ED000D1D02046FFF7A0FA0FA3D3E90023FFF7F4
:100EE0003DF9FFF7A1FD104B1860104CFFF794FA85
:100EF000CDE900010E4A0F21204603F091FF204664
:100F0000FFF758FE642382B22146064801F006FE30
:100F1000D1E700BFAFF300809A9999999999A93FB9
:100F2000E8020020A4020020FC010020640200204E
:100F30007C66000882B00E4B9A6942F001029A6109
:100F40009A6902F001020092009ADA6942F0805236
:100F5000DA61DB6903F080530193019B054A536812
:100F600023F0E06343F00073536002B0704700BFAA
:100F7000001002400000014000B587B0002302933A
:100F80000393049305930268114B9A4202D007B071
:100F90005DF804FB03F56C439A6942F400729A61B0
:100FA0009A6902F400720092009A9A6942F004026F
:100FB0009A619B6903F004030193019B022302934E
:100FC0000323039302A9034800F056FCDFE700BFA8
:100FD000002401400008014010B586B000230293B0
:100FE0000393049305930268164B9A4201D006B00E
:100FF00010BD03F560439A6942F480529A619A6980
:1010000002F480520092009A9A6942F004029A61B6
:101010009B6903F004030193019BA0230293022325
:10102000039303230593084C02A9204600F024FCF7
:101030004023029300230393049302A9204600F067
:101040001BFCD4E7003001400008014030B587B0F8
:101050000023029303930493059302681B4B9A4267
:1010600001D007B030BD03F558439A6942F480427D
:101070009A619A6902F480420092009A9A6942F059
:1010800004029A619B6903F004030193019B4FF4EE
:101090000073029302230393032305930C4D02A9CB
:1010A000284600F0E9FB4FF4806302930024039488
:1010B000049402A9284600F0DFFB224621462520A1
:1010C00000F014FB252000F045FBCAE70038014082
:1010D00000080140FEE7FEE7FEE7FEE7FEE7704797
:1010E0007047704708B500F079F908BD38B58B48EE
:1010F00001F004FE8A4B19784A1C1A70894A12784A
:101100000B441A71202A05D001228649834801F038
:101110000AFF38BD824B1B79332B22D0322B2AD0C9
:10112000342B32D0342B59D0342B00F08180342B27
:1011300000F08F80342B00F09D80342B00F0AF80C6
:10114000342B00F0C180342B00F0D380744900228E
:101150000B4603F8042B4A605A609A60C3F80B20D0
:10116000D2E76F4A9279342AD8D16D48011D1430E4
:1011700003F08AFEEAE76A4A9279342AD0D16848B5
:10118000011D243003F080FEE0E7654A9279332A9E
:10119000C8D1634A127A412AC4D1614B1B7D53B92D
:1011A000614C2046FFF706FD642382B221465B486E
:1011B00001F0B4FCCAE75A4D05F114042046FFF7CC
:1011C000F9FC642382B22146544801F0A7FC0023B5
:1011D0006B61AB61EB61C5F81F30B7E7504A92799C
:1011E000322AA1D14E4A127A442A9DD14C4B93F80F
:1011F000243053B94C4C2046FFF7DCFC642382B208
:101200002146464801F08AFCA0E7454D05F124043B
:101210002046FFF7CFFC642382B221463F4801F00D
:101220007DFC00236B62AB62EB62C5F82F308DE76B
:101230003B4A9279312A7FF47AAF394A127A4F2A9F
:101240007FF475AF01224FF48051384800F000FC64
:101250007CE7334A9279312A7FF46CAF304A127AB4
:10126000462A7FF467AF00224FF480512F4800F0E8
:10127000EFFB6BE72A4A9279322A7FF45EAF284A65
:10128000127A4F2A7FF459AF274C2046FFF792FC81
:10129000642382B22146214801F040FC56E7204AEF
:1012A0009279322A7FF44CAF1D4A127A462A7FF493
:1012B00047AF1D4C2046FFF77DFC642382B22146D8
:1012C000164801F02BFC41E7154A9279332A7FF446
:1012D0003AAF134A127A4F2A7FF435AF124C2046A8
:1012E000FFF768FC642382B221460C4801F016FC2B
:1012F0002CE70B4B9B79332B7FF428AF084B1B7AE1
:10130000462B7FF423AF084C2046FFF753FC6423A1
:1013100082B22146014801F001FC17E7A402002037
:1013200000020020E802002004020020000C01401E
:1013300008B503460B4A126842B10A4A10680344D2
:101340006A46934206D8074A136008BD054A064913
:101350001160F2E703F0E2F80C2303604FF0FF3076
:10136000F3E700BF3402002058030020704700005C
:1013700010B504460E4B18784FF47A73B3FBF0F3B4
:101380000C4A1068B0FBF3F000F0F2F968B90F2CCA
:1013900001D901200AE0002221464FF0FF3000F081
:1013A000A5F9034B5C60002000E0012010BD00BFE8
:1013B000040000200000002008B5074A136843F02D
:1013C00010031360032000F07FF90F20FFF7D0FF18
:1013D000FFF7B0FD002008BD00200240034A11685D
:1013E000034B1B780B441360704700BF5003002071
:1013F00004000020014B1868704700BF5003002014
:1014000038B50446FFF7F6FF0546B4F1FF3F02D0BA
:10141000044B1B781C44FFF7EDFF401BA042FAD39E
:1014200038BD00BF0400002030B482B00023019317
:1014300090F82430012B00F08B800246012380F8C5
:1014400024304B68062B29D80568686B03EB8303AF
:10145000053B1F249C4020EA04000C6804FA03F3B7
:1014600003436B630B68092B38D91568E86803EBF5
:1014700043031E3B07249C4020EA04008C6804FAC6
:1014800003F30343EB600B68103B012B34D90020BE
:10149000002382F8243002B030BC70470C2B0ED8E9
:1014A0000568286B03EB8303233B1F249C4020EA41
:1014B00004000C6804FA03F303432B63D2E70568C6
:1014C000E86A03EB8303413B1F249C4020EA0400AD
:1014D0000C6804FA03F30343EB62C3E71568286959
:1014E00003EB430307249C4020EA04008C6804FAC1
:1014F00003F303432B61C6E713681648834205D004
:10150000936A43F0200393620120C1E7986810F4C6
:10151000000F1BD1986840F4000098600B68102BF6
:1015200001D00020B4E70C4B1B680C49A1FB03134E
:101530009B0C03EB83035900019102E0019B013BEB
:101540000193019B002BF9D10020A1E700209FE728
:101550000220A0E7002401400000002083DE1B439E
:1015600038B503689A6812F0010F01D1002038BD28
:1015700004469A6822F001029A60FFF73BFF054695
:1015800023689B6813F0010F13D0FFF733FF401B54
:101590000228F5D923689B6813F0010FF0D0A36AE5
:1015A00043F01003A362E36A43F00103E362012006
:1015B000DDE70020DBE7000000287FD038B50446D7
:1015C000836A002B33D02046FFF7CAFFA36A13F0CB
:1015D00010036DD100286BD1A26A22F4885222F048
:1015E000020242F00202A2626268E1690A43257BBC
:1015F00042EA4502A168B1F5807F21D001291CD0C3
:10160000217D01291FD02568696821F469410B43B8
:101610006B6021688D682A4B2B4013438B60A36855
:10162000B3F5807F20D0012B1ED000211FE0C362C4
:1016300080F82430FFF7A0FCC5E74FF48073DFE7A4
:101640004FF48073DCE735B9A169013943EA4133CE
:1016500043F40063D7E7A16A41F02001A162E16A87
:1016600041F00101E162CEE72369013B19052568DC
:10167000EB6A23F470030B43EB6223689968114B08
:101680000B409A420BD0A36A23F0120343F01003DD
:10169000A362E36A43F00103E36201200DE000234B
:1016A000E362A36A23F0030343F00103A36204E0AF
:1016B000A36A43F01003A362012038BD01207047E4
:1016C000FDF7E1FFFE0E1FFF074AD36823F4E06336
:1016D0001B041B0C000200F4E060184340F0BF60E4
:1016E00040F40030D060704700ED00E030B4174B9C
:1016F000DB68C3F30223C3F10704042C28BF0424CE
:101700001D1D062D18D9033B4FF0FF3505FA04F4D3
:1017100021EA0401994005FA03F322EA030319437D
:1017200000280BDB0901C9B200F1604000F56140FF
:1017300080F8001330BC70470023E5E700F00F008D
:101740000901C9B2024B1954F4E700BF00ED00E0F3
:1017500014ED00E0002807DB00F01F024009012320
:101760009340024A42F82030704700BF00E100E099
:101770000138B0F1807F0AD2064B5860064AF0214A
:1017800082F823100020986007221A607047012019
:10179000704700BF10E000E000ED00E090F821305D
:1017A000022B06D004238363002380F8203001201D
:1017B00070470268136823F00E0313600268136811
:1017C00023F001031360036CC16B012202FA03F3DF
:1017D0004B6080F82120002380F8203018467047A5
:1017E00008B590F82130022B03D004238363012035
:1017F00008BD0268136823F00E03136002681368C3
:1018000023F0010313600368194A934214D0143281
:1018100093421FD0143293421ED0143293421ED0F2
:10182000143293421ED01432934202D04FF0807291
:1018300003E04FF4801200E001220E4B5A600123B6
:1018400080F82130002380F82030436B6BB198473B
:101850000020CDE71022F0E74FF48072EDE74FF45F
:101860008052EAE74FF48032E7E70020C0E700BF8C
:101870000800024000000240F0B482B00026324668
:10188000A2E0002D5AD0012D00D1CE68FF2B69D8DF
:101890008446FF2B69D89500DCF800400F27AF4045
:1018A00024EA070406FA05F52C43CCF800404C68FE
:1018B00014F0805F00F087805F4CA56945F001055A
:1018C000A561A46904F001040194019C9508AF1C72
:1018D0005A4C54F8274002F00307BF004FF00F0C9A
:1018E0000CFA07FC24EA0C0C554CA04243D004F53A
:1018F0008064A04200F0818004F58064A0427ED024
:1019000004F58064A04234D0042435E04D4FBD423C
:1019100014D00BD94C4FBD4210D007F58037BD42D3
:101920000CD0A7F58017BD42B0D107E0A7F580170E
:10193000BD4203D007F58037BD42A7D18D687DB188
:10194000012D08D044610826A0E7CE6808369DE73F
:10195000CE680C369AE70461082697E7002695E7DB
:10196000042693E700F1040C93E7A2F10805AD000B
:1019700092E7032400E00024BC4044EA0C04023552
:101980002E4F47F825404C6814F4803F39D02F4D36
:101990002C681C432C604C6814F4003F37D02B4D4E
:1019A0006C681C436C604C6814F4801F35D0274D64
:1019B000AC681C43AC604C6814F4001F33D0234D5A
:1019C000EC682343EB6001320B6833FA02F430D049
:1019D0000124944023409C42F5D14D68122DB7D08C
:1019E00094D8022DB1D07FF64CAF032DB6D0112D77
:1019F0007FF44CAFCE68043648E70124BCE70224EC
:101A0000BAE7124D2C6824EA03042C60C3E70F4D9B
:101A10006C6824EA03046C60C5E70C4DAC6824EAEA
:101A20000304AC60C7E7094DEC6824EA0303EB60EC
:101A3000C9E702B0F0BC704700100240000001404E
:101A40000008014000002110000031100004014096
:101A500012B90904016170470161704782B0084BF7
:101A60001B68084AA2FB03235B0A00FB03F00190FA
:101A700000BF019B5A1E0192002BF9D102B07047A2
:101A800000000020D34D6210002800F0F58170B5F1
:101A900082B00446036813F0010F2CD0AB4B5B6897
:101AA00003F00C03042B1DD0A84B5B6803F00C0360
:101AB000082B12D06368B3F5803F41D0002B55D17D
:101AC00003F1804303F504331A6822F480321A606C
:101AD0001A6822F480221A6037E09C4B5B6813F48A
:101AE000803FE7D0994B1B6813F4003F03D0636835
:101AF000002B00F0C381236813F0020F76D0934BC4
:101B00005B6813F00C0F5FD0904B5B6803F00C0325
:101B1000082B54D02369002B00F08A808C4B0122C3
:101B20001A60FFF767FC0546884B1B6813F0020F2D
:101B300075D1FFF75FFC401B0228F5D90320A0E117
:101B4000824A136843F480331360636843B3FFF73A
:101B500051FC05467D4B1B6813F4003FCBD1FFF7CA
:101B600049FC401B6428F5D903208AE1B3F5A02F76
:101B700009D0764B1A6822F480321A601A6822F46F
:101B800080221A60E1E703F18043A3F53C331A6831
:101B900042F480221A601A6842F480321A60D4E754
:101BA000FFF728FC0546694B1B6813F4003FA2D0E1
:101BB000FFF720FC401B6428F5D9032061E1634B4B
:101BC0005B6813F4803FA5D1604B1B6813F0020FD4
:101BD00004D02369012B01D0012052E15B4A136834
:101BE00023F0F803616943EAC1031360236813F02B
:101BF000080F32D0A369002B5BD0564B01221A602C
:101C0000FFF7F8FB0546514B5B6A13F0020F21D139
:101C1000FFF7F0FB401B0228F5D9032031E14B4AC6
:101C2000136823F0F803616943EAC1031360DDE739
:101C3000474B00221A60FFF7DDFB0546434B1B684C
:101C400013F0020FD2D0FFF7D5FB401B0228F5D9C5
:101C5000032016E10120FFF701FF236813F0040FB2
:101C600000F09880394BDB6913F0805F33D1374B3C
:101C7000DA6942F08052DA61DB6903F08053019344
:101C8000019B0125344B1B6813F4807F25D0E3684A
:101C9000012B36D0002B4CD103F1804303F50433E4
:101CA0001A6A22F001021A621A6A22F004021A6207
:101CB0002CE0284B00221A60FFF79CFB0546234BC3
:101CC0005B6A13F0020FC8D0FFF794FB401B022899
:101CD000F5D90320D5E00025D4E71F4A136843F463
:101CE00080731360FFF786FB06461B4B1B6813F4DB
:101CF000807FCCD1FFF77EFB801B6428F5D90320C1
:101D0000BFE0124A136A43F001031362E3687BB336
:101D1000FFF770FB06460D4B1B6A13F0020F38D11C
:101D2000FFF768FB801B41F288339842F3D9032008
:101D3000A7E0052B12D0054B1A6A22F001021A62A5
:101D40001A6A22F004021A62E0E700BF00100240A3
:101D50000000424280044242007000404C4B1A6A2C
:101D600042F004021A621A6A42F001021A62CDE7D6
:101D7000FFF740FB0646464B1B6A13F0020F08D0E4
:101D8000FFF738FB801B41F288339842F3D90320D8
:101D900077E0E5B9E369002B72D03D4A526802F062
:101DA0000C02082A56D0022B17D03A4B00221A6098
:101DB000FFF720FB0446364B1B6813F0007F47D02B
:101DC000FFF718FB001B0228F5D9032059E0304A21
:101DD000D36923F08053D361DCE72E4B00221A60D5
:101DE000FFF708FB05462A4B1B6813F0007F06D05F
:101DF000FFF700FB401B0228F5D9032041E0236ACE
:101E0000B3F5803F1AD022494B6823F47413226A39
:101E1000606A024313434B601E4B01221A60FFF7B6
:101E2000E9FA04461A4B1B6813F0007F0ED1FFF746
:101E3000E1FA001B0228F5D9032022E0144A536876
:101E400023F40033A1680B435360DCE7002018E063
:101E5000002016E0012B16D00D4B5B6803F4803197
:101E6000226A914201D001200BE003F47013626AF0
:101E700093420AD0012004E001207047012000E0D5
:101E8000002002B070BD0120FBE70020F9E700BF91
:101E9000001002406000424210B487B0164C94E833
:101EA0000F000DF1180C0CE90F00238AADF8043077
:101EB000124B5B6803F00C02082A1AD1C3F3834269
:101EC000624412F8102C13F4803F05D10C4800FB3B
:101ED00002F007B010BC7047084B5B68C3F3404387
:101EE000634413F8143C074800FB02F0B0FBF3F026
:101EF000EFE70448EDE700BF686600080010024005
:101F000000093D0000127A00002800F0A38070B59F
:101F10000446524B1B6803F007038B420CD24F4A16
:101F2000136823F007030B431360136803F00703E0
:101F30008B4201D0012070BD236813F0020F17D02F
:101F400013F0040F04D0464A536843F4E06353602F
:101F5000236813F0080F04D0414A536843F46053D8
:101F600053603F4A536823F0F003A0680343536073
:101F70000D46236813F0010F31D06368012B20D088
:101F8000022B25D0364A126812F0020F64D0344971
:101F90004A6822F0030213434B60FFF72BFA064610
:101FA0002F4B5B6803F00C036268B3EB820F16D013
:101FB000FFF720FA801B41F288339842F0D90320C2
:101FC000B9E7274A126812F4003FE0D10120B2E7D6
:101FD000234A126812F0007FD9D10120ABE71F4BD2
:101FE0001B6803F00703AB420CD91C4A136823F0AB
:101FF00007032B431360136803F00703AB4201D0C0
:10200000012098E7236813F0040F06D0144A5368A0
:1020100023F4E063E1680B435360236813F0080F77
:1020200007D00F4A536823F46053216943EAC10380
:102030005360FFF731FF0A4B5B68C3F30313094A90
:10204000D35CD840084B1860084B1868FFF790F92C
:10205000002070E70120704701206CE7002002405B
:102060000010024050660008000000200800002018
:10207000014B1868704700BF0000002008B5FFF74B
:10208000F7FF044B5B68C3F30223034AD35CD840D9
:1020900008BD00BF001002406066000808B5FFF7E9
:1020A000E7FF044B5B68C3F3C223034AD35CD84009
:1020B00008BD00BF001002406066000870B582B025
:1020C0000446036813F0010F34D03E4BDB6913F074
:1020D000805F48D13B4BDA6942F08052DA61DB69BC
:1020E00003F080530193019B0125374B1B6813F4C8
:1020F000807F3AD0334B1B6A13F4407311D062686F
:1021000002F440729A420CD02E4A136A23F44070B3
:102110002E4901260E6000260E60106213F0010F9A
:1021200037D1284A136A23F4407361680B43136262
:10213000002D3FD1236813F0020F06D0214A5368C7
:1021400023F44043A1680B435360236813F0100F3E
:1021500035D01C4A536823F48003E1680B43536075
:10216000002002B070BD0025BFE7174A136843F492
:1021700080731360FFF73EF90646134B1B6813F498
:10218000807FB7D1FFF736F9801B6428F5D903208B
:10219000E7E7FFF72FF906460A4B1B6A13F0020F19
:1021A000BFD1FFF727F9801B41F288339842F3D95A
:1021B0000320D6E7D36923F08053D361BAE7002028
:1021C000CFE700BF001002400070004040044242D0
:1021D0002DE9F04383B004460F4616461D46FFF72F
:1021E00009F90A9B181A00EB0508FFF703F9814665
:1021F0002A4B1B68C3F3CB3308FB03F3019323681B
:102200009B6837EA03030CBF01230023B34240D08D
:10221000B5F1FF3FF3D0FFF7EDF8A0EB0900404523
:102220000AD2B8F1000F07D0019B0BB94FF000089C
:10223000019B013B0193E2E72268536823F0E0032E
:1022400053606368B3F5827F0BD0A36AB3F5005F78
:1022500014D0012384F85130002384F85030032037
:1022600018E0A368B3F5004F02D0B3F5806FECD14E
:102270002268136823F040031360E6E722681368BE
:1022800023F4005313602268136843F4005313606F
:10229000DFE7002003B0BDE8F08300BF00000020AE
:1022A00010B582B0044600920B4600228021FFF751
:1022B0008FFF034610B9184602B010BD636D43F09E
:1022C000200363650323F6E710B582B00446406837
:1022D000B0F5827F13D06068B0F5827F03D1A36828
:1022E000B3F5806F18D000920B4600228021204663
:1022F000FFF76EFF0346F8B9184602B010BDA36899
:10230000B3F5004F02D0B3F5806FE4D120680368C5
:1023100023F040030360DEE700920B460022012118
:102320002046FFF755FF03460028E5D0636D43F0D4
:10233000200363650323DFE7636D43F020036365D8
:102340000323D9E7002856D010B50446436A33B9B1
:102350004368B3F5827F05D00023C36102E0002308
:10236000036143610023A36294F85130002B3CD0F9
:10237000022384F851302268136823F0400313606D
:10238000636803F48273A26802F404421343E268B0
:1023900002F400621343226902F0020213436269ED
:1023A00002F001021343A26902F400721343E269CE
:1023B00002F038021343226A02F080021343A26A39
:1023C00002F40052216813430B60638B226803F010
:1023D000040353602268D36923F40063D3610020AF
:1023E0006065012384F8513010BD84F850302046D8
:1023F000FEF7F2FDBCE7012070472DE9F04182B005
:1024000090F85040012C00F0C8801D4617468846C1
:102410000446012380F85030FEF7ECFF064694F89E
:102420005130DBB2012B09D00220012384F8513056
:10243000002384F8503002B0BDE8F081B8F1000FFD
:1024400000F09D80002F00F09C80032384F8513021
:1024500000236365C4F83080A786E786A363A3875B
:10246000E38763642364A368B3F5004F1CD023683B
:102470001A6812F0400F03D11A6842F040021A6045
:10248000E368B3F5006F1AD063680BB1012F4ED12A
:10249000226B236812781A73236B01332363E38E54
:1024A000013B9BB2E38642E02268136823F04003BD
:1024B00013602268136843F480431360D7E76368AE
:1024C0000BB1012F15D1226B23681288DA60236BC0
:1024D00002332363E38E013B9BB2E38609E0FEF700
:1024E00089FF801BA84202D3B5F1FF3F4BD1002DDD
:1024F0004BD0E38E9BB2002B2CD023689A6812F04D
:10250000020FECD0226B1288DA60236B0233236354
:10251000E38E013B9BB2E386EBE7FEF76BFF801B8C
:10252000A84202D3B5F1FF3F31D1002D31D0E38E67
:102530009BB27BB123689A6812F0020FEDD0226B38
:1025400012781A73236B01332363E38E013B9BB232
:10255000E386ECE7324629462046FFF7A1FE08B1A4
:1025600020236365A36833B901932368DA68019275
:102570009B680193019B636D6BB9002055E70120B7
:1025800053E7012051E703204FE703204DE70320E5
:102590004BE7032049E7012047E702204BE72DE9FD
:1025A000F04383B0DDF8288090F85040012C00F013
:1025B0000B811D4617460E460446012380F8503015
:1025C000FEF718FF814694F85100C0B263680128F5
:1025D00015D0B3F5827F0AD00223012284F851205E
:1025E000002284F85020184603B0BDE8F083A368A9
:1025F000002B40F0DB80042801D00223EDE7002E01
:1026000000F0D680002F00F0D580002D00F0D4809F
:1026100094F85130DBB2042B02D0052384F85130FA
:1026200000236365A763E587A5872663E586A586FE
:102630002364636423681A6812F0400F03D11A6898
:1026400042F040021A60E368B3F5006F10D063688F
:102650000BB1012D0AD1226B236812781A73236BF8
:1026600001332363E38E013B9BB2E386012569E0DE
:1026700063680BB1012D0AD1226B23681288DA60DE
:10268000236B02332363E38E013B9BB2E386012578
:102690001BE023689A6812F0010F0DD0E28F92B20E
:1026A00052B1DA68A36B1A80A36B0233A363E38F82
:1026B000013B9BB2E3870125FEF79CFEA0EB0900DE
:1026C000404502D3B8F1FF3F78D1E38E9BB21BB9EE
:1026D000E38F9BB2002B52D023689A6812F0020F4E
:1026E000D7D0E28E92B2002AD3D0002DD1D0226B67
:1026F0001288DA60236B02332363E38E013B9BB2C3
:10270000E3860025C5E723689A6812F0010F0DD013
:10271000E28F92B252B1DA68A36B1A70A36B0133E5
:10272000A363E38F013B9BB2E3870125FEF762FEC3
:10273000A0EB0900404502D3B8F1FF3F40D1B8F10A
:10274000000F3FD0E38E9BB213B9E38F9BB2B3B1BE
:1027500023689A6812F0020FD5D0E28E92B2002A56
:10276000D1D0002DCFD0226B12781A73236B013396
:102770002363E38E013B9BB2E3860025C3E74A4611
:1027800041462046FFF78CFD034618B120236365C0
:10279000012322E7A268002A7FF41FAF019222687A
:1027A000D168019192680192019A16E7022314E719
:1027B000012312E7012310E701230EE703230CE7AF
:1027C00003230AE7032308E702230CE72DE9F0417E
:1027D00082B004460F4690461D464368B3F5827F9B
:1027E00019D094F85030012B00F0A480012384F814
:1027F0005030FEF7FFFD064694F85130DBB2012B56
:1028000015D00220012384F85130002384F8503081
:1028100002B0BDE8F0818368002BE2D1042380F888
:102820005130009513460A46FFF7B9FEF0E7002F36
:1028300072D0B8F1000F71D0042384F85130002316
:102840006365A763A4F83C80A4F83E802363A38655
:10285000E38623646364A368B3F5004F0BD0236859
:102860001A6812F0400F03D11A6842F040021A6051
:10287000E368ABB131E02268136823F040031360D2
:102880002268136823F480431360E8E7FEF7B2FD83
:10289000801BA84202D3B5F1FF3F41D1002D41D0AA
:1028A000E38F9BB2002B2BD023689A6812F0010FA4
:1028B000ECD0A26B1B7B1370A36B0133A363E38F7C
:1028C000013B9BB2E387EBE7FEF794FD801BA84238
:1028D00002D3B5F1FF3F27D145B3E38F9BB27BB164
:1028E00023689A6812F0010FEED0DA68A36B1A80A1
:1028F000A36B0233A363E38F013B9BB2E387ECE757
:10290000324629462046FFF7DFFC08B120236365E5
:10291000636D6BB9002075E7012073E7012071E753
:1029200003206FE703206DE703206BE7032069E7CF
:10293000012067E702206BE70268D36823F49073F5
:10294000D3600268536923F001035361036B012BC9
:1029500005D0202380F83E300023036370470268CF
:10296000D36823F01003D360F3E790F83D30DBB277
:10297000212B27D18368B3F5805F16D0036A5A1CD8
:1029800002621A7803685A60C38C013B9BB2C3840D
:10299000D3B90268D36823F08003D3600268D36898
:1029A00043F04003D360002070470369002BE5D15A
:1029B000036A1B880268C3F308035360036A023387
:1029C0000362E1E7022070470020704738B50446F3
:1029D0000268136923F44053C1680B431361836891
:1029E0000269134342691A430168CB6823F4B05368
:1029F00023F00C031343CB600268536923F4407344
:102A000081690B4353610268124B9A421FD0FFF752
:102A100035FB00EB800000EB800063689B00B0FB9F
:102A2000F3F00D4DA5FB00325109642202FB1102A7
:102A300013013233A5FB03235B0903F0F00202EB21
:102A4000011203F00F03216813448B6038BDFFF7B8
:102A500025FBDEE7003801401F85EB512DE9F041F1
:102A600005460F4616469846069C2B681B6837EAB3
:102A700003030CBF01230023B3421DD1B4F1FF3F78
:102A8000F3D02CB1FEF7B6FCA0EB0800A042ECD9C5
:102A90002A68D36823F4D073D3602A68536923F07B
:102AA00001035361202385F83D3085F83E30002333
:102AB00085F83C30032000E00020BDE8F08158B3E9
:102AC00010B5044690F83D300BB3242384F83D3014
:102AD0002268D36823F40053D3602046FFF776FFC3
:102AE0002268136923F4904313612268536923F029
:102AF0002A0353612268D36843F40053D360002053
:102B00002064202384F83D3084F83E3010BD80F8E6
:102B10003C30FEF79BFAD8E7012070472DE9F041E1
:102B200082B01E4690F83D30DBB2202B54D10446D3
:102B30000D469046002954D0002A54D090F83C30DD
:102B4000012B52D0012380F83C3000230364212361
:102B500080F83D30FEF74EFC0746A4F82480A4F828
:102B60002680A368B3F5805F05D04FF000080023EE
:102B700084F83C3011E0236913B14FF00008F6E708
:102B8000A8460025F3E738F8023B2268C3F30803A0
:102B90005360E38C013B9BB2E384E38C9BB273B143
:102BA00000963B46002280212046FFF757FFF0B9F0
:102BB000002DE8D015F8012B23685A60E9E700964C
:102BC0003B46002240212046FFF748FF034680B9DC
:102BD000202284F83D2000E00223184602B0BDE820
:102BE000F0810123F9E70123F7E70223F5E7032347
:102BF000F3E70323F1E7704708B50168CB6823F0DA
:102C00004003CB60202380F83D30FFF7F4FF002025
:102C100008BD7047704708B5406A0023C385C38468
:102C2000FFF7F8FF08BD704790F83E30DBB2222B6B
:102C300060D18368B3F5805F45D0826AB3F5805F69
:102C400004D0002B4CD10369002B49D103685B6889
:102C50001370836A01338362C38D013B9BB2C385CA
:102C6000002B49D100B583B00268D36823F020035C
:102C7000D3600268D36823F48073D3600268536919
:102C800023F001035361202380F83E30036B012BB6
:102C90002CD1002303630268D36823F01003D360B0
:102CA00003681A6812F0100F06D0002201921A6809
:102CB00001925B680193019B818DFFF7B4FF0020B7
:102CC00003B05DF804FB0269002AB6D1826A03688A
:102CD0005B68C3F308031380836A02338362BBE734
:102CE00003685B6803F07F031370B2E7FFF791FF9F
:102CF0000020E5E7022070470020704730B583B020
:102D0000044602681368D068516913F00F0505D1B5
:102D100013F0200F02D010F0200F56D1002D6AD0F2
:102D200011F0010102D110F4907F64D013F0010F73
:102D300006D010F4807F03D0226C42F0010222649E
:102D400013F0040F04D019B1226C42F00202226485
:102D500013F0020F04D019B1226C42F00402226475
:102D600013F0080F07D010F0200F00D119B1226C1A
:102D700042F008022264226C002A4BD013F0200F8C
:102D800002D010F0200F24D123685B6903F04003C8
:102D9000226C12F0080F00D13BB32046FFF7CCFDA8
:102DA00023685A6912F0400F1BD05A6922F0400282
:102DB0005A61A36B8BB14D4A5A63A06BFEF710FDAD
:102DC00040B3A06B436B984724E02046FFF72CFFED
:102DD00020E02046FFF728FFD6E72046FFF71AFF3E
:102DE00018E02046FFF716FF14E02046FFF712FF19
:102DF000002323640EE0216B01290DD013F0800F16
:102E000002D010F0800F69D113F0400F02D010F003
:102E1000400F67D103B030BD13F0100FEED010F0AB
:102E2000100FEBD0002301931368019353680193B3
:102E3000019B536913F0400F2FD0A16B0B685B68A7
:102E40009BB2002BE6D0A08D9842E3D9E3858B6935
:102E5000202B1AD0D36823F48073D360226853697F
:102E600023F0010353612268536923F04003536147
:102E7000202384F83E30002323632268D36823F0A4
:102E80001003D360A06BFEF789FCA18DE38DC91AF6
:102E900089B22046FFF7C7FEBCE7A18DE38DC91AB2
:102EA00089B2E38D9BB2002BB4D00029B2D0D36895
:102EB00023F49073D3602268536923F001035361B4
:102EC000202384F83E30002323632268D36823F054
:102ED0001003D3602046FFF7A6FE9BE72046FFF7CE
:102EE00044FD97E72046FFF787FE93E7172C00087D
:102EF000034681628285C28500201864222283F8FD
:102F00003E2083F83C001968CA6842F48072CA60A7
:102F100019684A6942F001024A611A68D36843F0AD
:102F20002003D360704708B590F83E30DBB2202B09
:102F30000DD171B17AB190F83C30012B0DD0012345
:102F400080F83C3000230363FFF7D2FF00E002204B
:102F500008BD0120FCE70120FAE70220F8E70000A5
:102F600030B583B000238DF807308DF806300C4C57
:102F70004FF4803323610B4D642301220DF10701CF
:102F80002846FFF73AFA642301220DF1060128468C
:102F9000FFF71CFC012323619DF8060003B030BD40
:102FA00000080140F802002030B583B000231D4A1C
:102FB000137080228DF804208DF80530022807D088
:102FC000042805D0032806D1D3238DF8053002E06C
:102FD000C3238DF80530144C4FF4803323616423F0
:102FE000022201A91148FFF708FA012323610024F6
:102FF000FFF7B6FFD12813D0FFF7B2FFC1280FD0DB
:103000000134E4B2084D4FF480332B616423022273
:1030100001A90648FFF7F1F901232B61642CE7D1E0
:1030200003B030BD4002002000080140F80200203B
:10303000F8B504460D460022594BFDF7CBFC00289D
:103040005FD10022574B2046294600F021F940A3CA
:10305000D3E90023FDF738FA06460F460022524B0B
:103060002046294600F014F93BA3D3E90023FDF7DD
:103070002BFA02460B4630463946FDF76DF80646F8
:103080000F460022494B2046294600F001F934A39F
:10309000D3E90023FDF718FA02460B4630463946BD
:1030A000FDF75AF806460F4600224FF080432046AF
:1030B000294600F0EDF82CA3D3E90023FDF704FA2C
:1030C00002460B4630463946FDF748F806460F469D
:1030D00027A3D3E9002320462946FDF7F5F9024648
:1030E0000B4630463946FDF739F823A3D3E90023D0
:1030F000FDF732F82E4BC3E902012D4BD3E9020153
:10310000F8BD0022264B20462946FDF707FB024664
:103110000B4600202749FDF71FF819A3D3E9002328
:10312000FDF7D2F918A3D3E90023FDF717F800F053
:1031300049FA17A3D3E90023FDF70EF816A3D3E944
:103140000023FDF7EBFA1A4BC3E90201D5E700BFF4
:10315000DE6C3EE6E38DF23D3AAE505D52C8713E04
:103160007F4B666E0BC8883EDE638B99E101633F3F
:10317000BB5D2566E4D601401A4FB748E8426E4071
:1031800088CE19EEAF60C33ED828C9DF4C04F03EAC
:103190001C64ED4A2602703F88CE19EEAF60B3BEC4
:1031A000000059400000144000001040000008409A
:1031B000400200200000F03F70B582B0012402A957
:1031C00001F8014D1C4D4FF480332B611B4E6423DD
:1031D00022463046FFF711F964230722694630463C
:1031E000FFF7F4FA2C619DF800309DF8014044EAA5
:1031F000032464089DF8063083B92046FDF7EAF8F9
:103200000BA3D3E90023FDF75FF900224FF07C53B5
:10321000FDF75AF9FFF70CFF02B070BD084D01230E
:103220002B700320FFF7C0FE00232B70E5E700BFE3
:103230000000000000C87A4000080140F8020020A9
:10324000400200200C480D490D4A002302E0D458EA
:10325000C4500433C4188C42F9D30A4A0A4C0023E0
:1032600001E013600432A242FBD3FEF77FF801F0C5
:103270005BF9FDF7E9FD704700000020E001002048
:1032800010690008E001002058030020FEE700005C
:103290002DE9F04F8DB006460F4614461D4600F04E
:1032A000EFF9DFF81493CDE9000199F90080B8F146
:1032B000FF3F36D022462B4620462946FDF79EFB8F
:1032C000834670BB32463B4630463946FDF796FB97
:1032D0008246002840F0AD80304639460022002367
:1032E000FDF75AFB10B30022002320462946FDF7C4
:1032F00053FB8346002869D0012200200021A94BFE
:10330000CDF828A0CDE90467CDE90645CDE908014F
:10331000CDE90223B8F1000F42D00023A24CCDE941
:103320000034DDE900010DB0BDE8F08FDDE90001FA
:1033300000F0DEFF8046002800F09880DDE9000103
:103340004FF0000A4FF0000B52465B46FDF724FB9E
:103350000028E6D03046394600F0CAFF0028E0D009
:103360002046294600F0C4FF0028DAD004200021BE
:1033700099F900308B4A022BCDE90467CDE9064567
:10338000CDE908AB02900A91039204D002A800F0A4
:10339000B5FF002842D101F0C1F8222303603DE0CF
:1033A00002A800F0ABFF002800F0B3800A9B002BBE
:1033B0003AD001F0B3F8DDE90834CDE900340A9BD6
:1033C0000360DDE900010DB0BDE8F08F204629461D
:1033D00000F08EFF0028A4D00022002320462946BA
:1033E000FDF7E4FA00289CD001216E4A99F90030DB
:1033F000CDF828B0CDE90467CDE90645CDE9021244
:10340000002B00F08B8000206849022BCDE90801D9
:1034100040F0888001F082F8212303600A9B1BB1F1
:1034200001F07CF80A9B0360DDE90834CDE9003443
:1034300077E70022002320462946FDF7ADFA002851
:103440003FF46FAF01200022574B5649B8F1020FED
:10345000CDF828B0CDE90467CDE906450290CDE965
:10346000082303919CD1CDE900235AE73046394621
:1034700000F03EFF00283FF461AF2046294600F0EF
:1034800037FF00283FF45AAFDDE900231046194604
:10349000FDF7B4FA99F900A0002868D10323DFF8FA
:1034A00004C10A902946204602930022404BCDE9F0
:1034B0000645CDE90467CDF80CC0FDF705F80446D4
:1034C0000D46BAF1000F34D14FF0604ADFF8ECB08E
:1034D0000022002330463946CDE908ABFDF766FAF5
:1034E00000283FF453AF2046294600F00FFF224644
:1034F0002B46FDF751FA002836D14FF060422D4B94
:1035000099F900A0CDE90823BAF1020F3FF443AFC7
:103510003CE701F003F82123036047E70023002480
:10352000CDE9083402A800F0E9FE00287FF476AF68
:1035300070E74FF0000BDFF888C000220023304610
:103540003946CDE908BCFDF731FA0028DCD0204629
:10355000294600F0DBFE22462B46FDF71DFA18B97E
:103560000022124BCDE9082399F900A0CCE70122F3
:103570000C4BCDF82880CDE90467CDE90645CDE9AF
:103580000223BAF1000FC9D00022002310461946C9
:10359000FDF7C4F8BAF1020FCDE908013FF43AAFE4
:1035A000C0E700BF886600080000F03F0000F0FFA1
:1035B0000000E03FFFFFEFC70C000020FFFFEF47D8
:1035C0000000F07F2DE9F04F8BB004460D4600F06F
:1035D000C9FD294B064693F900A00F46BAF1FF3FFB
:1035E00012D022462B4620462946FDF707FA83468D
:1035F00050B94FF000084FF00009204629464246D6
:103600004B46FDF7D3F920B9304639460BB0BDE83B
:10361000F08F0122194BCDF820B0CDE90445CDE95A
:103620000245CDE90023BAF1000F17D042464B46C0
:1036300040464946FDF772F8BAF1020FCDE906019E
:103640000ED100F06BFF21230360089B73B9DDE905
:103650000667304639460BB0BDE8F08FCDE90689E4
:10366000684600F04BFE0028EFD1EAE700F056FF75
:10367000089B0360EBE700BF0C0000208C6600088D
:103680002DE9F04F23F0004555EA020493B00DD028
:10369000794E21F00044B4420F4682460FDD04F11A
:1036A000404404F5801454EA0A035BD10023734CB0
:1036B000CDE90034DDE9000113B0BDE8F08F984694
:1036C00094464ED0B542EADC6B4EB54266D0002F30
:1036D0008B468146CDE9022364DB0026BCF1000F56
:1036E0000ED1654B9D4246D0644B9D4200F09780C1
:1036F000B8F1804F00F0B280614B984500F0D28362
:103700004846594600F0F0FDCDE90001BAF1000F3E
:1037100006D1002C60D0594B27F040429A425BD032
:10372000FF0F013F56EA070300F08280554B9D4290
:1037300040F3B08003F104739D4240F34E84524B3A
:103740009C4240F38280B8F1000F40F3828048A38E
:10375000D3E9002310461946FCF7B6FECDE9000177
:10376000A8E728B1494813B0BDE8F04F00F0C8BD44
:10377000A542F7DCA8E704F1404303F5801353EAC0
:103780000A0393D0404B9C4240F39683B8F1000F5C
:103790005FDBDDE90234CDE900348BE7BCF1000FDB
:1037A00095D07CE73A4B9D4237DCA3F154739D42A0
:1037B00093DD2B15A3F2FF33142B40F3ED83C3F1FC
:1037C00034032CFA03F202FA03F3634585D102F0C5
:1037D0000102C2F1020681E7B8F1000F07DADDE964
:1037E000002300202549FCF799FFCDE90001002FB7
:1037F000BFF660AF04F1404404F5801454EA0603B8
:1038000000F04984012E7FF455AFDDE900452246E2
:1038100005F10043CDE900234CE702265EE7B8F14D
:10382000000FC0F2558348465946CDE9000141E7F3
:103830004A4648465B465946FCF78EFC02460B4614
:10384000FCF76CFFCDE9000134E7B8F1000FFFF69B
:103850007EAF00230024CDE900342BE74A464846DA
:103860005B465946FCF730FECDE9000122E700BF78
:103870009C7500883CE4377E0000F07F0000F03F3C
:103880000000E03F0000E041FFFFEF3F90660008CE
:10389000FFFF3F43B4F5801F80F29C83DDE9000108
:1038A0000022D14BFCF710FE6FF0340C0C46CDE932
:1038B00000012315CD4AC4F31304A3F2FF3344F0EF
:1038C0007F5503EB0C0194420D9145F4401540F3F4
:1038D0007383C74B9C4240F30084002300240022E2
:1038E000CDE90A34CDE910340024C24B0131CDE9D1
:1038F00006230D91A5F58015DDE906ABDDE9000194
:1039000052465B4629468046FCF726FC5246CDE9E6
:1039100008015B4640462946CDE906ABFCF71EFC94
:1039200002460B460020B349FCF7F8FE0A46014662
:103930001346CDE90E120246DDE90801FCF7C4FD8D
:103940000A4683469446002301460020CDE900BC88
:1039500000936B1043F0005303F50023CDE90412EC
:10396000DDE900AB1919A94604460D4602460B468F
:1039700050465946FCF7A8FD02460B46DDE9080112
:10398000FCF7EAFBDDE90623CDE9080120462946DC
:10399000FCF7E2FB02460B4640464946FCF7DCFBDF
:1039A00052465B46FCF790FD02460B46DDE90801F6
:1039B000FCF7D2FBDDE90E23FCF786FDDDE90445CB
:1039C000CDE9060122462B4620462946FCF77CFD20
:1039D00073A3D3E9002304460D46FCF775FD72A3DB
:1039E000D3E90023FCF7BAFB22462B46FCF76CFD1B
:1039F0006FA3D3E90023FCF7B1FB22462B46FCF76B
:103A000063FD6DA3D3E90023FCF7A8FB22462B46F8
:103A1000FCF75AFD6AA3D3E90023FCF79FFB22467B
:103A20002B46FCF751FD68A3D3E90023FCF796FB76
:103A30002246804689462B4620462946FCF744FD0F
:103A400002460B4640464946FCF73EFD04460D46FD
:103A5000DDE9040152465B46FCF780FBDDE9062305
:103A6000FCF732FD22462B46FCF778FB5246804697
:103A700089465B4650465946FCF726FD00225E4BC0
:103A8000CDE90801FCF76AFB42464B46FCF766FBB2
:103A900000980D4604462B46224650465946FCF7F0
:103AA00013FD002282468B46534B20462946FCF7E5
:103AB00053FBDDE90823FCF74FFB02460B4640466B
:103AC0004946FCF749FBDDE90423FCF7FDFC2246EF
:103AD00080468946DDE906012B46FCF7F5FC0246E7
:103AE0000B4640464946FCF739FB8046894602466C
:103AF0000B4650465946FCF731FB35A3D3E900236A
:103B000000980D460446FCF7DFFC5246CDE904015F
:103B10005B4620462946FCF71FFB02460B46404603
:103B20004946FCF719FB2CA3D3E90023FCF7CCFC96
:103B30002BA3D3E900238046894620462946FCF77B
:103B4000C3FC02460B4640464946FCF707FBDDE94D
:103B50001023FCF703FB80460D988946FCF74AFCCE
:103B600082468B46DDE9040142464B46FCF7F6FAF5
:103B7000DDE90A23FCF7F2FA52465B46FCF7EEFA5F
:103B8000009852465B4604460D46FCF7E5FADDE92F
:103B90000A23FCF7E1FADDE904232FE0AFF300800C
:103BA000EF4E454A287ECA3F65DBC9934A86CD3F22
:103BB00001411DA96074D13F4D268F515555D53F08
:103BC000FFAB6FDBB66DDB3F033333333333E33FA0
:103BD000000000E009C7EE3FFD033ADC09C7EE3FF5
:103BE000F5015B14E02F3EBE000040438E980300B9
:103BF00079B60B000000F03F00000840FCF7ACFA7B
:103C00000B46024649464046FCF7A6FA0022013E12
:103C100056EA070314BFDA4BDA4B8B46CDE904238F
:103C2000DDE9021200230E461746CDE90067009336
:103C3000DDE9006782463B46084611463246FCF7FE
:103C40008BFA22462B46FCF73FFCDDE90223804637
:103C5000894650465946FCF737FC02460B4640461B
:103C60004946FCF77BFA8046894632463B46204669
:103C70002946CDE90289FCF727FC0B460246064699
:103C80000F4640464946FCF769FABF4B0446994245
:103C90000D468A4640F3268101F13F4303F5E003D8
:103CA000034340F0FE81A2A3D3E90023DDE9020132
:103CB000FCF754FA3246804689463B462046294660
:103CC000FCF74AFA02460B4640464946FCF78CFE92
:103CD000002840F0E681A8464FF4801300204FEA08
:103CE0002852A2F2FE3213415344C3F30A52A74DA5
:103CF000A2F2FF321541C3F3130423EA0501C2F116
:103D0000140B44F48014BAF1000F02460B4644FA37
:103D10000BFB30463946B8BFCBF1000BFCF71CFA61
:103D200006460F46DDE9020132463B46FCF716FA2D
:103D30000D464FEA0B5A00247FA3D3E90023204607
:103D40002946FCF7C1FB3246804689463B46204661
:103D50002946FCF701FA02460B46DDE90201FCF7B1
:103D6000FBF977A3D3E90023FCF7AEFB76A3D3E9F5
:103D7000002306460F4620462946FCF7A5FB0246CF
:103D80000B4630463946FCF7E9F906460F4602462F
:103D90000B4640464946FCF7E1F942464B4604468D
:103DA0000D46FCF7D9F902460B4630463946FCF77A
:103DB000D3F92246804689462B4620462946FCF701
:103DC00083FB63A3D3E9002306460F46FCF77CFB85
:103DD00061A3D3E90023FCF7BFF932463B46FCF769
:103DE00073FB5FA3D3E90023FCF7B8F932463B46E7
:103DF000FCF76AFB5CA3D3E90023FCF7ADF932467C
:103E00003B46FCF761FB5AA3D3E90023FCF7A6F974
:103E100032463B46FCF758FB02460B4620462946F5
:103E2000FCF79AF906460F4602460B4620462946FD
:103E3000FCF74AFB0022CDE900014FF080433046F9
:103E40003946FCF789F902460B46DDE90001FCF72B
:103E500065FC424606460F464B4620462946FCF77F
:103E600033FB42464B46FCF779F902460B46304697
:103E70003946FCF771F922462B46FCF76DF90246EC
:103E80000B4600203E49FCF767F98A44BAF5801FCB
:103E9000C0F235815146DDE90423FCF715FBCDE97D
:103EA000000107E4002FFFF62BAC4846594613B03B
:103EB000BDE8F04F00F056B9B8F1000FBFF6C9AC3D
:103EC000DDE90234009304F100430193FFF7F2BBF4
:103ED0004A465B4600202A49FCF720FCCDE9000158
:103EE000FFF7E8BB2A4B21F00048984540F3E980F2
:103EF000284B0B4403430AD132463B46FCF72CF9CE
:103F0000DDE90223FCF766FD00283FF4E5AE1AA3C5
:103F1000D3E90023DDE90401FCF7D6FA16A3D3E9BF
:103F20000023FCF7D1FACDE90001FFF7C3BB00BFC6
:103F3000FE822B654715973C00000000432EE63FAC
:103F4000EF39FAFE422EE63F396CA80C615C20BEC8
:103F5000D0A4BE726937663EF16BD2C541BDBB3E8F
:103F60002CDE25AF6A56113F93BDBE166CC1663F6D
:103F70003E5555555555C53F59F3F8C21F6EA5011D
:103F80000000F03F0000F0BFFFFF8F40FFFF0F0079
:103F9000FFCB904000346F3FBCF1000F40F09A809F
:103FA000C3F1140345FA03F202FA03F3AB4200F043
:103FB000AA806646FFF798BB002300241A462346D2
:103FC000CDE90A23CDE910230022614B0024CDE97D
:103FD000062391E44FF0000C6BE45E4B9C427FF7AC
:103FE00034AC5B4B9C423FF7AEABDDE900010022F5
:103FF000574BFCF7B1F848A3D3E9002304460D461C
:10400000FCF762FA46A3D3E9002382468B4620469A
:104010002946FCF759FA0022CDE900014E4B204613
:104020002946FCF751FA02460B463FA1D1E90001AF
:10403000FCF792F822462B46FCF746FA02460B465E
:1040400000204649FCF788F82246804689462B46E0
:1040500020462946FCF738FA02460B4640464946B8
:10406000FCF732FA32A3D3E90023FCF72DFA02461B
:104070000B46DDE90001FCF76FF802460B4680466F
:10408000894650465946FCF769F800200D4604461B
:1040900052465B46B2E5DDE9002310461946FFF7BC
:1040A000CBBB25A3D3E90023DDE90401FCF70CFA1F
:1040B00021A3D3E90023FCF707FACDE90001FFF7BC
:1040C000F9BA264B98453FF707AEDDE90023924643
:1040D000934630E60026FFF713BB19A3D3E900236C
:1040E000CDE90A2318A3D3E90023CDE91023002248
:1040F0001B4B4FF48024CDE90623FFF7FDBB5A4646
:1041000000F092F9C7E602F00102C2F10206FFF7E1
:10411000EBBA00BFAFF30080000000604715F73F27
:1041200044DF5DF80BAE543E555555555555D53FBA
:10413000FE822B654715F73F9C7500883CE4377E6F
:104140000000004003B8E23F06D0CF43EBFD4C3EF9
:104150000000F03FFEFFEF3F0000D03F0000E03FD7
:104160000000F83F5F4A2DE9F0418A430D460746BB
:1041700000F0948000290B460446064654DD0F15D6
:1041800000F0A780C3F31303A7F2FF3743F48013B3
:10419000F20FF80702EB43034FEA460503D5ED0F94
:1041A00005EB4303B50000261622B4464FF4001178
:1041B0007F100CEB010098424FEAD5744FEA450599
:1041C00003DC1B1A00EB010C0E44013A04EB430321
:1041D0004FEA5101EDD11046964620244FF000429F
:1041E00009E052D05B00013C03EBD5734FEA520269
:1041F0004FEA450537D0634502EB0E01F1DD00299A
:1042000001EB020E0ADBE046A3EB0C03A94288BFD8
:1042100003F1FF33C4466D1A1044E3E7BEF1000F0B
:10422000F1DB0CF10108EFE721F00042024329D055
:10423000002945D10146CA0A153B4905002AFAD092
:1042400012F4801001D048E030465200D40200F150
:104250000106F9D5C6F1200401FA06F6E1401F1A5D
:1042600041EA02038EE72B4324D14408731003F183
:104270007F53F20703F5001348BF44F0004403EBFB
:10428000075127463846BDE8F081A942AAD800293F
:1042900001EB020EC2DB98460023BBE702460B4649
:1042A000FCF712F93A462B46FBF758FF074638460B
:1042B000BDE8F081411C16BF421C01365408D5E709
:1042C0000246FBF749FF02460B46FCF727FA074672
:1042D000D8E71A4621463B46B2E70E4620244FF067
:1042E000FF30BBE70000F07F21F000431946704724
:1042F00041F0004101F58010C00F70470020704769
:1043000000200149704700BF0000F87F2DE9F0410F
:10431000C1F30A57A7F2FF35132D82B002460B46B0
:104320000C464FEAD178064632DC002D4DDB3B4986
:10433000294103EA0100104325D049080B4052EA05
:1043400003060BD04FF48023132D0CBF4FF0004613
:10435000002624EA010143FA05F40C4330492346C0
:1043600001EBC808D8E90045324620462946FBF74C
:10437000F5FECDE90001DDE9000122462B46FBF701
:10438000EBFE02460B461046194602B0BDE8F0812E
:10439000332D07DDB5F5806FF5D1FBF7DFFE024663
:1043A0000B46F0E74FF0FF31A7F21347F940084200
:1043B000E9D049080842D1D04FF0804320EA0101FA
:1043C00043FA07F741EA0706C8E721F00041014335
:1043D000D9D0C3F313031E4373423343640C1B0B46
:1043E000640403F4002343EA04010B460C4901EB87
:1043F000C801D1E9004520462946FBF7AFFECDE9CB
:104400000001DDE9000122462B46FBF7A5FE21F065
:104410000041024641EAC873B5E700BFFFFF0F0045
:104420009866000800000000F8B5C1F30A5304467E
:104430000D460E4617460BBB034621F0004633439C
:104440001BD02F4B0022FCF73FF82E4B04469F4217
:104450000D4637DB0E46C1F30A53363B40F2FE727F
:104460003B4493421ADC002B11DD26F0FF4626F474
:10447000E00646EA035520462946F8BD40F2FF72A1
:104480009342EBD102460B46FBF768FEF8BD13F1F1
:10449000350F1DDA4CF250339F420CDD14A1D1E9E7
:1044A000000122462B4600F031F811A3D3E9002386
:1044B000FCF70AF8F8BD22460FA1D1E900012B460E
:1044C00000F024F80CA3D3E90023FBF7FDFFF8BDAF
:1044D00026F0FF4626F4E006363346EA035520462A
:1044E00029460022084BFBF7EFFFF8BDAFF3008031
:1044F0009C7500883CE4377E59F3F8C21F6EA50115
:1045000000005043B03CFFFF0000903C03F000432C
:1045100021F0004242EA0301704700BF014B1868D6
:10452000704700BF1000002070B500250C4E0D4CE8
:10453000A41BA410A54209D102F07CF800250A4E64
:104540000A4CA41BA410A54205D170BD56F8253015
:1045500098470135EEE756F8253098470135F2E7E0
:104560000869000808690008086900080C69000863
:1045700003460244934200D1704703F8011BF9E758
:10458000002B2DE9F0471E46BBBF03F100431E463A
:1045900000232D2388B0149FDDE9121A27F020078D
:1045A000462F1446109D0B7004D0452F00D10135C5
:1045B000022300E0032307AA049206AACDE902A27F
:1045C000CDE900352246334600F0F6FC472F804601
:1045D00002D1119BDB0726D5462F08EB050911D127
:1045E00098F80030302B0AD10022002320463146B3
:1045F000FCF7D2F918B9C5F10105CAF80050DAF88C
:10460000003099440022002320463146FCF7C4F9CB
:1046100038B93022079B4B4505D2591C07911A70B7
:10462000F8E7CDF81C904046079B159AA3EB0803CA
:10463000136008B0BDE8F087F7B50029B4BF2D239B
:104640002B230446B8BF4942092904F8022B4370C2
:1046500021DD0DF107031F460A2691FBF6F506FB47
:104660001511092D01F1300103F8011C03F1FF328E
:10467000294609DC3031023B02F8011CBB422246CC
:1046800004D3101A03B0F0BD1346E6E713F8012B6C
:1046900004F8012BF2E7302319448370021DC17026
:1046A000EFE700002DE9F04F91B00C461A9F9346BA
:1046B0001E46054601F034FA036818460993FCF7D4
:1046C00079FA00230E933B680A90073323F007031F
:1046D00003F1080294F81880D4F800A03A60D3E9F6
:1046E0000023C4E91223D4E9127929F000430B9383
:1046F0004FF0FF32A64B38460B99FCF77FF968BBA9
:104700004FF0FF32A24B38460B99FCF759F928BB02
:104710000022002338464946FCF748F910B12D2302
:1047200084F843309B4F9C4BB8F1470F98BF1F460E
:1047300003234FF0000923612AF00403236000964D
:104740005B460FAA2146284600F0E2F9013040F00E
:1047500090804FF0FF3011B0BDE8F08F3A464B46E5
:1047600038464946FCF74AF910B18C4F8C4BDBE7D1
:1047700063684AF48062591C0DA80EA940D1062333
:1047800063604FF0000C0DF13303CDE90123636842
:104790002260CDE9030800933A464B46CDE9051C5B
:1047A0002846FFF7EDFE08F0DF03472B074609D147
:1047B0000D9BD81C02DB6268934247DDA8F102081A
:1047C0005FFA88F8B8F1650F0D9924D8013942468F
:1047D00004F150000D91FFF72FFF0E9A8146131838
:1047E000012A236102DC2268D10701D5013323614C
:1047F0009DF83330002BA2D02D2384F843309EE760
:10480000B8F1670F00F06E81B8F1470FB9D1002BF6
:10481000B7D10123B4E7B8F1660F19D10029636855
:104820000CDD216113B92268D20702D501330B4494
:1048300023610D9B4FF00009A365D9E713B92268E6
:10484000D00701D50233F3E70123F1E74FF0670802
:10485000DDE90D32934205DB22682361D107E8D5FB
:104860000133E5E7002BCCBF0123C3F1020313445E
:10487000DEE723685A0507D423693A465946284695
:10488000B047013029D164E7B8F1650F40F2D78015
:10489000D4E9120100220023FCF77EF888B301233B
:1048A000404A59462846B04701303FF452AFDDE94F
:1048B0000D239A4202DB2368D8070ED5DDE90923D0
:1048C00059462846B04701303FF443AF002704F172
:1048D0001A080E9B013BBB4209DC23689F0700F1CD
:1048E000FD80E0680F9B9842B8BF184633E701236C
:1048F000424659462846B04701303FF42AAF0137B7
:10490000E7E70D9B002B2BDC0123264A594628465E
:10491000B04701303FF41DAF0D9B23B90E9B13B977
:104920002368D907D9D5DDE9092359462846B04778
:1049300001303FF40EAF4FF0000804F11A090D9B4F
:104940005B42434501DC0E9B97E701234A465946EB
:104950002846B04701303FF4FCAE08F10108EEE70D
:104960000E9AA36D9A42A8BF1A46002A904607DD08
:10497000134659463A462846B04701303FF4E9AE5F
:1049800004F11A034FF0000A28EAE8780B9315E0C7
:10499000FFFFEF7FAC660008A8660008B466000859
:1049A000B0660008B866000801230B9A59462846ED
:1049B000B04701303FF4CDAE0AF1010AD4F8589067
:1049C000A9EB08035345EFDCDDE90D239A424F4480
:1049D00014DB2368DA0711D40E9B0D99A3EB0902AF
:1049E000A3EB01099145A8BF9146B9F1000F0DDC79
:1049F000002729EAE97904F11A0818E0DDE909231A
:104A000059462846B0470130E6D1A2E64B463A4621
:104A100059462846B0470130EAD19AE6012342467A
:104A200059462846B04701303FF493AE0137DDE9DF
:104A30000D239B1AA3EB0903BB42EFDC4DE70E9A53
:104A4000012A01DCDB0738D501233A4659462846BE
:104A5000B04701303FF47DAEDDE9092359462846D1
:104A6000B047013007F101073FF473AED4E91201FA
:104A70000E9B002203F1FF380023FBF78DFFC0B926
:104A800043463A4659462846B04701300DD160E6C4
:104A90000123424659462846B04701303FF459AEFB
:104AA00001370E9B013BBB42F2DC4B4604F1500246
:104AB000E4E6002704F11A08F3E70123E1E7012304
:104AC000424659462846B04701303FF442AE0137CE
:104AD000E3680F9A9B1ABB42F1DC02E7002704F15E
:104AE0001908F5E7002B3FF494AE4FF0000CCDE928
:104AF000051C0DF133012260CDE90308CDE9012148
:104B000000933A464B462846FFF73AFD07464FE6E4
:104B10002DE9F04791461F468A680B690646934285
:104B2000B8BF1346C9F8003091F843200C46DDF8B1
:104B3000208012B10133C9F800302368990642BFC2
:104B4000D9F800300233C9F80030256815F00605A1
:104B500007D104F1190AE368D9F800209B1AAB4287
:104B600029DC94F843302268003318BF01239206F1
:104B70002ED404F1430239463046C047013021D0DB
:104B80002368E56803F00603042B18BF0025D9F855
:104B900000204FF0000908BFAD1AA368226908BFC2
:104BA00025EAE5759342C4BF9B1AED181A344D45AA
:104BB0001AD1002008E00123524639463046C0474A
:104BC000013003D14FF0FF30BDE8F0870135C2E777
:104BD0003020E11881F843005A1C94F84510224413
:104BE000023382F84310C4E7012322463946304697
:104BF000C0470130E6D009F10109D8E72DE9F043BB
:104C000001F1430C0C46097E85B06E291746064615
:104C100098460C9A00F0B38022D8632936D00AD87F
:104C2000002900F0B980582900F0838004F1420582
:104C300084F8421032E0642901D06929F6D1206855
:104C40001368050603F104012AD51B681160002BC7
:104C500003DA2D225B4284F843206F480A2239E0B0
:104C6000732900F09D8008D86F2920D07029DDD1EC
:104C7000236843F02003236003E0752917D07829C7
:104C8000D4D17823654884F8453055E0136804F1A1
:104C90004205191D1B68116084F8423001238CE025
:104CA0001B6810F0400F116018BF1BB2CFE71368EC
:104CB0002568181D1060280601D51B6802E06806EB
:104CC000FBD51B886F2914BF0A22082252480021F5
:104CD00084F843106568002DA560C0F295802168B6
:104CE00021F004012160002B3DD1002D40F08E8089
:104CF0006546082A0BD12368DB0708D5236962685B
:104D00009A42DEBF302305F8013C05F1FF35ACEBDC
:104D100005032361CDF800803B4603AA21463046B7
:104D2000FFF7F6FE01304DD14FF0FF3005B0BDE882
:104D3000F083394884F84510136821681D1D1B68ED
:104D400015600A060BD5CA0744BF41F02001216057
:104D50001BB9226822F0200222601022B7E74D061C
:104D600048BF9BB2EFE76546B3FBF2F102FB11339C
:104D7000C35C05F8013D0B460029F5D1B9E713687E
:104D80002568181D6169106028061B6801D5196027
:104D900002E06A06FBD51980002365462361B9E766
:104DA0001368191D11601D6862680021284600F013
:104DB000CDFE08B1401B606063682361002384F866
:104DC0004330A7E723692A4639463046C0470130B9
:104DD000AAD023689B0713D4E068039B9842B8BF0E
:104DE0001846A3E701234A4639463046C0470130FA
:104DF0009AD00135E368039A9B1AAB42F2DCEBE7E9
:104E0000002504F11909F5E7002BACD1037804F172
:104E1000420584F842306CE7BA660008CB660008A9
:104E20000CB430B5174B0C1E9DB01D6808DA8B23EF
:104E30004FF0FF302B601DB0BDE8304002B070472E
:104E40004FF40273ADF814300CBF234604F1FF3366
:104E5000049307934FF6FF7302900690ADF8163057
:104E6000209A21AB02A92846019301F073FA431C52
:104E7000BCBF8B232B60002CDDD00022029B1A705C
:104E8000D9E700BF10000020034611F8012B03F8FA
:104E9000012B002AF9D170472DE9F74F03690C69FE
:104EA0008046A342C0F28480013C01F1140700F166
:104EB000140657F8245056F824000135B0FBF5F5D8
:104EC0004FEA840C06EB0C0307EB0C0901939DB32E
:104ED0004FF0000A3846B646D34650F8042B93B23A
:104EE00005FB03A3120C4FEA134A05FB02A29BB277
:104EF000ABEB0303DEF800B04FEA124A1FFA8BFB5C
:104F00005B441FFA82FBDEF800208145CBEB1242A6
:104F100002EB23429BB243EA02434FEA224B4EF894
:104F2000043BDAD256F80C3033B9019B043B9E4265
:104F30001A4631D3C8F81040404601F035F8002831
:104F400026DB30464FF0000C013557F8041BD0F833
:104F500000E08BB2ACEB03031FFA8EF213440A0C91
:104F6000C2EB1E4202EB23429BB243EA0243B94525
:104F70004FEA224C40F8043BE7D256F8242006EBD7
:104F800084032AB9043B9E421A460BD3C8F810404A
:104F9000284603B0BDE8F08F1268043B002AC9D14F
:104FA000013CC4E71268043B002AEFD1013CEAE768
:104FB0000020EEE7000000002DE9F04F16461F46E6
:104FC000456A95B00446DDF88480CDE902673DB9B5
:104FD000102000F0B3FD6062C0E901550560C560B6
:104FE000636A196851B15A68012393404A608B6023
:104FF000204600F0F8FD0022636A1A603B1EAFBF36
:105000000023012223F000430393ACBFC8F8003013
:10501000C8F80020AE4BDDF80C8033EA08031BD142
:1050200042F20F73209A1360029B23B9C8F3130056
:10503000002800F04585229B53B9A64B21E0A64BE2
:1050400006930833229A1360069815B0BDE8F08FD6
:10505000A04B06930333F5E7DDE902670022002346
:1050600030463946FBF798FC824660B10123209A0E
:105070001360229B002B00F02085984B229A13602E
:10508000013B0693E0E712AB019313AB009332466A
:105090003B46204601F000F8C8F30A558346002D30
:1050A0007DD0B046C7F3130343F07F5949F440194C
:1050B000A5F2FF35CDF840A00022894B4046494675
:1050C000FBF74AF87CA3D3E90023FBF7FDF97CA3A7
:1050D000D3E90023FBF742F8064628460F46FBF7C4
:1050E00089F979A3D3E90023FBF7EEF902460B46D1
:1050F00030463946FBF732F806460F46FBF762FDAD
:1051000000228246002330463946FBF74FFC48B167
:105110005046FBF76FF932463B46FBF73DFC08B9BA
:105120000AF1FF3ABAF1160F5AD8DDE902236D49A8
:1051300001EBCA01D1E90001FBF756FC002851D070
:1051400000230AF1FF3A0D93129B5D1B6B1E079320
:1051500043BF0023C5F1010907934FF00009BAF1DD
:10516000000F41DB079BCDF830A053440793002389
:1051700008931E9B092B00F28F80052BC4BF043BB4
:105180001E931E9BC8BF0025A3F10203D8BF0125B3
:10519000032B00F28D80DFE803F07B7D2F6FDDE9CC
:1051A00012531D4405F23240202813DDC0F14000A7
:1051B000029B08FA00F805F2124023FA00F048EAD0
:1051C0000000FBF707F901238046A1F1F879013DC2
:1051D000109371E7029BC0F1200003FA00F0F0E7A2
:1051E0000123B0E70D90AFE7CAF100030893002355
:1051F000A9EB0A090C93BCE7012309931F9B002B21
:1052000074DD984604930022666A7260042202F1FB
:105210001400984271686ED9204600F0B0FC636AB1
:1052200030601B68B8F10E0F069300F2ED80002D80
:1052300000F0EA80DDE90223BAF1000FCDE90E2388
:1052400077DD284A0AF00F034FEA2A1602EBC30360
:10525000F006D3E90023CDE90A2368D5DDE90E0184
:10526000214B0325D3E90823FBF758FACDE90201C6
:1052700006F00F061C4F4FE0012309931F9B534478
:1052800003F1010804934346012BB8BF0123BAE799
:105290000023B2E70023F0E70125002309951E93C0
:1052A0004FF0FF3300220493984612231F92AAE77F
:1052B00001230993F4E700BF61436F63A787D23FDF
:1052C000B3C8608B288AC63FFB799F501344D33FF5
:1052D0000000F07FE5660008DC660008B96600089B
:1052E0000000F83F18670008F066000801230493E7
:1052F00098461A46DAE701317160520087E7F107F4
:1053000008D5DDE90A01D7E90023FBF7DDF8CDE98F
:105310000A01013576100837002EF0D1DDE90A23A5
:10532000DDE90201FBF7FAF9CDE902011BE00225F4
:10533000A0E700F0A480DDE90E01CAF10006A04B51
:1053400006F00F0203EBC203D3E90023FBF7BCF81E
:1053500002250023CDE902019A4F3611002E40F0BC
:105360008380002BE0D10D9B002B00F08A80DDE9CB
:105370000223CDE90A23DDE90A010022924BFBF763
:1053800015FB00287DD0B8F1000F7AD0049B002BCC
:1053900036DDDDE90A0100228C4BFBF795F8CDE9FB
:1053A0000201049E0AF1FF3701352846FBF722F877
:1053B000DDE90223FBF788F80022854BFAF7CEFEE1
:1053C000A1F15075CDE90A010B95002E5CD1DDE904
:1053D000020100227F4BFAF7BFFE0A9A2B46CDE965
:1053E0000201FBF701FB002840F08182DDE90201A8
:1053F0000A9A05F10043FBF7D9FA002840F07582BC
:10540000DDE90E23CDE90223139B002BC0F24B8173
:10541000BAF10E0F00F34781694B03EBCA03D3E9DE
:105420000023CDE904231F9B002B80F2D780B8F125
:10543000000F00F3D38040F05782DDE90401002221
:10544000644BFBF741F8DDE90223FBF7C3FA46465C
:105450004746002840F02D82069B069A5D1C3123AA
:105460000AF1010A137028E2F20705D5D7E90023F3
:10547000FBF72AF801230135761008376EE702257D
:1054800071E75746464690E74D4B03EBC60353E999
:105490000201099B002B48D002460B4600204E49D2
:1054A000FBF73CF9DDE90A23FAF756FECDE90A01DC
:1054B000069DDDE90201FBF785FB1190FAF79AFFE3
:1054C00002460B46DDE90201FAF746FE119BCDE9E3
:1054D0000201303305F8013BDDE90A23FBF766FAE8
:1054E000002863D1DDE9022300203749FAF734FEB2
:1054F000DDE90A23FBF75AFA002840F0B580069B45
:10550000EB1A9E427FF77CAFDDE90A0100222F4BA8
:10551000FAF7DAFF0022CDE90A01DDE902012B4B9F
:10552000FAF7D2FFCDE90201C3E7DDE90A23FAF772
:10553000CBFF069BCDE90A019D191E46DDE902015C
:10554000FBF740FB1190FAF755FF02460B46DDE9E9
:105550000201FAF701FE119BCDE90201303306F892
:10556000013BAE424FF0000224D1DDE90A011A4BA3
:10557000FAF7F4FD02460B46DDE90201FBF734FAC7
:10558000002871D1DDE90A2300201349FAF7E4FD70
:1055900002460B46DDE90201FBF708FA00283FF45A
:1055A0002FAF15F8013C6A1E302B01D0BA464AE0F5
:1055B0001546F6E7054BFAF787FFCDE90201BDE78F
:1055C00018670008F06600080000F03F0000244063
:1055D00000001C40000014400000E03F069DDDE993
:1055E0000267DDE9042330463946FBF797F8FBF7FD
:1055F000E9FA8146FAF7FEFEDDE90423FAF764FFD3
:1056000002460B4630463946FAF7A6FD09F1300648
:1056100005F8016B069E0246AE1BB0450B4635D120
:10562000FAF79CFDDDE9042306460F46FBF7DCF99B
:10563000C8B9DDE9042330463946FBF7ADF910B1AE
:1056400019F0010F0FD15946204600F0CCFA002383
:10565000209A2B700AF101031360229B002B3FF468
:10566000F3AC1D60F0E4574615F8012C6B1E392A87
:1056700006D1069A9A4207D1302313701346013798
:105680001A7801321A7091E71D46EDE70022994B16
:10569000FAF71AFF0022002306460F46FBF77CF9B3
:1056A00000289ED0CFE7099A002A00F088801E9A31
:1056B000012A6DDC109A002A66D003F233434D466E
:1056C000089E079A01211A4420469944079200F047
:1056D0002AFB0746002D0BDD079B002B08DDAB42A4
:1056E000A8BF2B46079AA9EB0309ED1AD31A079313
:1056F000089BEBB1099B002B65D08EB13946324631
:10570000204600F0AFFB5A4601460746204600F00F
:1057100013FB59460A90204600F065FA0A9B9B4607
:10572000089B9A1B04D05946204600F09BFB8346F9
:105730000121204600F0F7FA0C9B0646002B00F0F2
:10574000C6811A460146204600F08CFB1E9B064689
:10575000012B3EDC029B002B37D1039BC3F31303C9
:10576000002B34D1039B23F000431B0D1B052BB1F1
:10577000079B09F1010901330793012308930C9B4F
:10578000002B28D101202EE0129BC3F1360396E7AF
:10579000089B08F1FF36B342B7BF089B9E1BF21A65
:1057A0000C9BBFBF08969B180C930026B8F1000F06
:1057B000B9BFA9EB080500234D46434681E7089E83
:1057C0004D46099F86E7089AADE70023D6E7029B7E
:1057D000D4E700230893336906EB8303186900F0CC
:1057E00054FAC0F12000079B184410F01F0047D066
:1057F000C0F12003042B3BDD079BC0F11C0081445A
:10580000054403440793B9F1000F05DD59464A46A4
:10581000204600F075FB8346079B002B05DD3146D3
:105820001A46204600F06CFB06460D9B53B33146EA
:10583000584600F0B9FB002824DA002359460A2212
:10584000204600F0E7F9099B0AF1FF3A8346002B56
:1058500000F04481002339460A22204600F0DAF99C
:10586000049B0746002B4DDC1E9B022B4ADD11E0FA
:10587000C9D0079A1C331A4499441D441346C1E702
:105880000346F6E7B8F1000F36DC1E9B022B33DD32
:10589000CDF81080049B63B931460522204600F004
:1058A000B9F901460646584600F07EFB00283FF74E
:1058B000D3AD1F9B069D6FEA030A4FF000093146E6
:1058C000204600F090F9002F3FF4BDAEB9F1000F73
:1058D00005D0B94503D04946204600F084F9394641
:1058E000204600F080F9AEE600263746E1E7BA46EA
:1058F0003746B1E500002440099BCDF81080002B0D
:1059000000F0F380002D05DD39462A46204600F0E0
:10591000F7FA0746089B002B4CD07968204600F028
:105920002EF905463A6907F10C01023292000C305B
:1059300000F01AF901222946204600F0E1FAB946A2
:105940000746069B0793029B03F001030893314629
:105950005846FFF7A1FA4946054600F13008584677
:1059600000F022FB3A4602903146204600F036FB1A
:10597000C368024603BB01460990584600F014FB79
:105980000346099A11462046099300F02CF9099B19
:10599000A3B91E9A92B9089A82B9B8F1390F29D0E1
:1059A000029B002B01DD05F13108079B5D1C83F88C
:1059B000008084E73846C2E70123E3E7029A002A21
:1059C00004DB23D11E9A0ABB089AFAB9002BECDD3E
:1059D00059460122204600F093FA3146834600F0F2
:1059E000E3FA002803DCE0D118F0010FDDD0B8F1B4
:1059F000390FD8D1079B079A5D1C3923137015F80E
:105A0000013C6A1E392B4DD0013352E0079A002B1E
:105A100002F1010506DDB8F1390FEBD008F10108FC
:105A2000079BC4E7069B049AEB1A934205F8018C86
:105A300021D0594600230A22204600F0EBF8B94550
:105A400083464FF000034FF00A024946204605D135
:105A500000F0E0F881460746079578E700F0DAF8AD
:105A60003946814600230A22204600F0D3F8074633
:105A7000F2E74FF0000959460122204600F040FAB3
:105A80003146834600F090FA0028B8DC02D118F0C5
:105A9000010FB4D115F8013C6A1E302B7FF40FAF13
:105AA0001546F7E7069B934205D13123069A0AF182
:105AB000010A137003E71546A1E7174BFFF7E1BA98
:105AC000229B002B7FF4BBAA144BFFF7DABA1E9B74
:105AD000012B7FF73FAE0C9B089353E6049B002BF2
